:020000040800F2
:1000000000280020750C0008190C00081F0C0008BF
:10001000250C00082B0C0008310C00080000000023
:10002000000000000000000000000000370C000885
:10003000430C0008000000004F0C00085B0C000897
:10004000BD0C0008BD0C0008BD0C0008BD0C00086C
:10005000BD0C0008BD0C0008BD0C0008BD0C00085C
:10006000BD0C0008BD0C0008BD0C0008BD0C00084C
:10007000BD0C0008BD0C0008BD0C0008BD0C00083C
:10008000BD0C0008BD0C0008BD0C0008BD0C00082C
:10009000BD0C0008BD0C0008BD0C0008BD0C00081C
:1000A000BD0C0008BD0C0008BD0C0008BD0C00080C
:1000B000BD0C0008BD0C000800000000BD0C0008CD
:1000C000BD0C00080000000000000000BD0C00088E
:1000D00000000000BD0C0008BD0C0008000000007E
:1000E000BD0C0008BD0C0008BD0C0008000000009D
:1000F0000000000000000000000000000000000000
:0C01000000000000000000005FF808F1A3
:10010C0010B5054C237833B9044B13B10448AFF345
:10011C0000800123237010BD0C00002000000000A3
:10012C00E01A000808B5034B1BB103490348AFF3B1
:10013C00008008BD0000000010000020E01A00083C
:10014C0080B582B000AF00F0B5FD00F0A7F800F06C
:10015C00E1F800237B607B6801337B607B68052BB7
:10016C0043DC7B68C3F10503184600F029F9012232
:10017C000121494801F082F800220221464801F091
:10018C007DF800220421444801F078F87B68022BAA
:10019C0015DC7B68C3F10203184600F0FDFA00225F
:1001AC0008213D4801F06AF8012210213A4801F07B
:1001BC0065F800222021384801F060F861E07B6886
:1001CC00C3F10503184600F0E7FA00220821324873
:1001DC0001F054F8002210212F4801F04FF80122B1
:1001EC0020212D4801F04AF84BE07B68072B2ADCD4
:1001FC007B68C3F10703184600F0E2F800220121E6
:10020C00254801F03BF801220221234801F036F881
:10021C0000220421204801F031F87B68C3F10A0365
:10022C00184600F0B9FA012208211B4801F026F803
:10023C0000221021184801F021F800222021164834
:10024C0001F01CF81DE07B680A2B1ADC7B68C3F1FB
:10025C000A03184600F0B4F8002201210E4801F000
:10026C000DF8002202210C4801F008F801220421AB
:10027C00094801F003F87B68C3F10A03184600F043
:10028C008BFA7B68092B01DD00237B604FF47A70BD
:10029C0000F072FD5FE700BF000C014080B590B02C
:1002AC0000AF07F1180328220021184601F00AFCC0
:1002BC003B1D00221A605A609A60DA601A610223B0
:1002CC00BB610123BB621023FB6200237B6307F13C
:1002DC001803184600F0EAFF0346002B01D000F08B
:1002EC005DFC0F237B600023BB600023FB600023BD
:1002FC003B6100237B613B1D0021184601F056FA3F
:10030C000346002B01D000F049FC00BF4037BD462E
:10031C0080BD000080B586B000AF07F10803002255
:10032C001A605A609A60DA60224B9B69214A43F04A
:10033C00080393611F4B9B6903F008037B607B6888
:10034C001C4B9B691B4A43F004039361194B9B693B
:10035C0003F004033B603B68002241F6FF71164832
:10036C0000F08CFF00224FF4FE41144800F086FF91
:10037C0041F6FF73BB600123FB6000233B6102234A
:10038C007B6107F1080319460B4800F0FDFD4FF4A3
:10039C00FE43BB600123FB6000233B6102237B61B6
:1003AC0007F108031946054800F0EEFD00BF1837A9
:1003BC00BD4680BD00100240000C01400008014009
:1003CC0080B582B000AF78607B68092B00F2B481F5
:1003DC0001A252F823F000BF0D0400085F040008CE
:1003EC00B10400080305000855050008A70500081E
:1003FC00F90500084B0600089D060008EF060008EA
:10040C0000224021CB4800F039FF00228021C9484E
:10041C0000F034FF00224FF48071C64800F02EFF2C
:10042C0000224FF40071C34800F028FF00224FF463
:10043C008061C04800F022FF00224FF40061BD48EB
:10044C0000F01CFF01224FF48051BA4800F016FF57
:10045C009BE101224021B74800F010FF00228021CF
:10046C00B44800F00BFF00224FF48071B14800F04B
:10047C0005FF01224FF40071AE4800F0FFFE01228F
:10048C004FF48061AB4800F0F9FE01224FF400619B
:10049C00A84800F0F3FE01224FF48051A54800F06B
:1004AC00EDFE72E100224021A24800F0E7FE00229E
:1004BC008021A04800F0E2FE01224FF480719D489B
:1004CC0000F0DCFE00224FF400719A4800F0D6FEDA
:1004DC0000224FF48061974800F0D0FE01224FF4C7
:1004EC000061944800F0CAFE00224FF480519148FC
:1004FC0000F0C4FE49E1002240218E4800F0BEFE0F
:10050C00002280218B4800F0B9FE00224FF480714C
:10051C00884800F0B3FE00224FF40071854800F0CB
:10052C00ADFE01224FF48061824800F0A7FE01224B
:10053C004FF400617F4800F0A1FE00224FF480517F
:10054C007C4800F09BFE20E101224021794800F01C
:10055C0095FE00228021774800F090FE00224FF497
:10056C008071744800F08AFE01224FF400717148CA
:10057C0000F084FE01224FF480616E4800F07EFE94
:10058C0000224FF400616B4800F078FE00224FF41B
:10059C008051684800F072FEF7E000224021654867
:1005AC0000F06CFE01228021624800F067FE002200
:1005BC004FF480715F4800F061FE00224FF400712F
:1005CC005C4800F05BFE01224FF48061594800F05A
:1005DC0055FE00224FF40061564800F04FFE0022F9
:1005EC004FF48051534800F049FECEE000224021E8
:1005FC00504800F043FE012280214E4800F03EFEA0
:10060C0000224FF480714B4800F038FE00224FF46A
:10061C000071484800F032FE00224FF480614548DA
:10062C0000F02CFE00224FF40061424800F026FE40
:10063C0000224FF480513F4800F020FEA5E000223C
:10064C0040213C4800F01AFE00228021394800F07D
:10065C0015FE00224FF48071364800F00FFE012287
:10066C004FF40071334800F009FE01224FF4806111
:10067C00304800F003FE01224FF400612D4800F0D9
:10068C00FDFD01224FF480512A4800F0F7FD7CE07B
:10069C0000224021274800F0F1FD0022802125484E
:1006AC0000F0ECFD00224FF48071224800F0E6FDD2
:1006BC0000224FF400711F4800F0E0FD00224FF4BF
:1006CC0080611C4800F0DAFD00224FF400611948EB
:1006DC0000F0D4FD00224FF48051164800F0CEFDFE
:1006EC0053E000224021134800F0C8FD0022802175
:1006FC00104800F0C3FD00224FF480710D4800F04B
:10070C00BDFD00224FF400710A4800F0B7FD012234
:10071C004FF48061074800F0B1FD00224FF40061F6
:10072C00044800F0ABFD00224FF48051014800F06A
:10073C00A5FD2AE0000C014000224021154800F0E4
:10074C009DFD00228021134800F098FD00224FF4FB
:10075C008071104800F092FD00224FF400710D489A
:10076C0000F08CFD00224FF480610A4800F086FDF9
:10077C0000224FF40061074800F080FD00224FF486
:10078C008051044800F07AFD00BF00BF0837BD4619
:10079C0080BD00BF000C014080B582B000AF786016
:1007AC007B68092B00F2C88101A252F823F000BF2C
:1007BC00E50700083B08000891080008E708000856
:1007CC003D09000893090008E90900083F0A0008E0
:1007DC00950A0008EB0A000800224FF48071D548F6
:1007EC0000F04CFD00224FF40071D24800F046FDA1
:1007FC0000224FF48061CF4800F040FD00224FF4FE
:10080C000061CC4800F03AFD00224FF48051C948F9
:10081C0000F034FD00224FF40051C64800F02EFDCC
:10082C0001224FF48041C34800F028FDAFE10122C2
:10083C004FF48071BF4800F021FD00224FF400718D
:10084C00BC4800F01BFD00224FF48061B94800F059
:10085C0015FD01224FF40061B64800F00FFD012296
:10086C004FF48051B34800F009FD01224FF40051C0
:10087C00B04800F003FD01224FF48041AD4800F078
:10088C00FDFC84E100224FF48071AA4800F0F6FCD4
:10089C0000224FF40071A74800F0F0FC01224FF445
:1008AC008061A44800F0EAFC00224FF40061A148EA
:1008BC0000F0E4FC00224FF480519E4800F0DEFC76
:1008CC0001224FF400519B4800F0D8FC00224FF459
:1008DC008041984800F0D2FC59E100224FF480711D
:1008EC00944800F0CBFC00224FF40071914800F0CA
:1008FC00C5FC00224FF480618E4800F0BFFC002242
:10090C004FF400618B4800F0B9FC01224FF4805188
:10091C00884800F0B3FC01224FF40051854800F0E8
:10092C00ADFC00224FF48041824800F0A7FC2EE180
:10093C0001224FF480717F4800F0A0FC00224FF49C
:10094C0000717C4800F09AFC00224FF480617948D9
:10095C0000F094FC01224FF40061764800F08EFC0C
:10096C0001224FF48051734800F088FC00224FF4B0
:10097C000051704800F082FC00224FF480416D4819
:10098C0000F07CFC03E100224FF48071694800F018
:10099C0075FC01224FF40071664800F06FFC0022D8
:1009AC004FF48061634800F069FC00224FF4006151
:1009BC00604800F063FC01224FF480515D4800F068
:1009CC005DFC00224FF400515A4800F057FC002205
:1009DC004FF48041574800F051FCD8E000224FF40E
:1009EC008071544800F04AFC01224FF400715148C8
:1009FC0000F044FC00224FF480614E4800F03EFCB5
:100A0C0000224FF400614B4800F038FC00224FF4F8
:100A1C008051484800F032FC00224FF40051454808
:100A2C0000F02CFC00224FF48041424800F026FCE0
:100A3C00ADE000224FF480713E4800F01FFC002214
:100A4C004FF400713B4800F019FC00224FF4806118
:100A5C00384800F013FC01224FF40061354800F0D7
:100A6C000DFC01224FF48051324800F007FC0122AA
:100A7C004FF400512F4800F001FC01224FF480414B
:100A8C002C4800F0FBFB82E000224FF480712948D7
:100A9C0000F0F4FB00224FF40071264800F0EEFB4E
:100AAC0000224FF48061234800F0E8FB00224FF451
:100ABC000061204800F0E2FB00224FF480511D48F9
:100ACC0000F0DCFB00224FF400511A4800F0D6FB7A
:100ADC0000224FF48041174800F0D0FB57E0002271
:100AEC004FF48071134800F0C9FB00224FF40071E1
:100AFC00104800F0C3FB00224FF480610D4800F059
:100B0C00BDFB00224FF400610A4800F0B7FB012244
:100B1C004FF48051074800F0B1FB00224FF4005114
:100B2C00044800F0ABFB00224FF48041014800F078
:100B3C00A5FB2CE00008014000224FF48071164800
:100B4C0000F09CFB00224FF40071134800F096FB60
:100B5C0000224FF48061104800F090FB00224FF40B
:100B6C0000610D4800F08AFB00224FF480510A48C6
:100B7C0000F084FB00224FF40051074800F07EFB8C
:100B8C0000224FF48041044800F078FB00BF00BF06
:100B9C000837BD4680BD00BF0008014080B400AFDF
:100BAC0072B600BFFEE7000080B485B000AF154BF5
:100BBC009B69144A43F001039361124B9B6903F048
:100BCC000103BB60BB680F4BDB690E4A43F08053DB
:100BDC00D3610C4BDB6903F080537B607B680A4B61
:100BEC005B68FB60FB6823F0E063FB60FB6843F031
:100BFC008063FB60044AFB68536000BF1437BD463A
:100C0C0080BC7047001002400000014080B400AF6F
:100C1C00FEE780B400AFFEE780B400AFFEE780B41F
:100C2C0000AFFEE780B400AFFEE780B400AF00BFBA
:100C3C00BD4680BC704780B400AF00BFBD4680BCD1
:100C4C00704780B400AF00BFBD4680BC704780B514
:100C5C0000AF00F075F800BF80BD80B400AF00BFDE
:100C6C00BD4680BC704700000C480D490D4A00235E
:100C7C0002E0D458C4500433C4188C42F9D30A4A45
:100C8C000A4C002301E013600432A242FBD3FFF7AD
:100C9C00E4FF00F0F3FEFFF753FA7047000000206A
:100CAC000C000020201B00080C0000202C00002051
:100CBC00FEE7000080B500AF084B1B68074A43F005
:100CCC0010031360032000F02BF90F2000F008F83C
:100CDC00FFF76AFF0023184680BD00BF00200240CA
:100CEC0080B582B000AF7860124B1A68124B1B783B
:100CFC0019464FF47A73B3FBF1F3B2FBF3F31846D6
:100D0C0000F035F90346002B01D001230EE07B687F
:100D1C000F2B0AD8002279684FF0FF3000F00BF946
:100D2C00064A7B681360002300E00123184608374D
:100D3C00BD4680BD000000200800002004000020FB
:100D4C0080B400AF054B1B781A46054B1B68134447
:100D5C00034A136000BFBD4680BC704708000020EA
:100D6C002800002080B400AF024B1B681846BD461B
:100D7C0080BC70472800002080B584B000AF78603C
:100D8C00FFF7F0FFB8607B68FB60FB68B3F1FF3FD7
:100D9C0005D00A4B1B781A46FB681344FB6000BF56
:100DAC00FFF7E0FF0246BB68D31AFA689A42F7D8FD
:100DBC0000BF00BF1037BD4680BD00BF080000203B
:100DCC0080B485B000AF78607B6803F00703FB60EC
:100DDC000C4BDB68BB60BA684FF6FF031340BB607B
:100DEC00FB681A02BB68134343F0BF6343F4003340
:100DFC00BB60044ABB68D36000BF1437BD4680BCDF
:100E0C00704700BF00ED00E080B400AF044BDB681E
:100E1C001B0A03F007031846BD4680BC704700BF91
:100E2C0000ED00E080B483B000AF03463960FB7185
:100E3C0097F90730002B0ADB3B68DAB20C4997F9BB
:100E4C0007301201D2B20B4483F800230AE03B684E
:100E5C00DAB20849FB7903F00F03043B1201D2B25A
:100E6C000B441A7600BF0C37BD4680BC704700BFE0
:100E7C0000E100E000ED00E080B489B000AFF86064
:100E8C00B9607A60FB6803F00703FB61FB69C3F18F
:100E9C000703042B28BF0423BB61FB690433062B17
:100EAC0002D9FB69033B00E000237B614FF0FF326A
:100EBC00BB6902FA03F3DA43BB681A407B699A40B8
:100ECC004FF0FF317B6901FA03F3D9437B680B4088
:100EDC00134318462437BD4680BC704780B582B09A
:100EEC0000AF78607B68013BB3F1807F01D30123B5
:100EFC000FE00A4A7B68013B53600F214FF0FF3033
:100F0C00FFF790FF054B00229A60044B07221A60F2
:100F1C00002318460837BD4680BD00BF10E000E036
:100F2C0080B582B000AF78607868FFF749FF00BFEA
:100F3C000837BD4680BD80B586B000AF0346B960AA
:100F4C007A60FB7300237B61FFF75EFF78617A6840
:100F5C00B9687869FFF790FF024697F90F30114690
:100F6C001846FFF75FFF00BF1837BD4680BD80B540
:100F7C0082B000AF78607868FFF7B0FF0346184680
:100F8C000837BD4680BD000080B48BB000AF7860E0
:100F9C00396000237B6200233B6248E101227B6ABB
:100FAC0002FA03F3FB613B681B68FA691340BB61EF
:100FBC00BA69FB699A4240F037813B685B68A34A87
:100FCC0093425ED0A14A934275D8A14A934258D01D
:100FDC009F4A93426FD89F4A934252D09D4A934264
:100FEC0069D89D4A93424CD09B4A934263D89B4A02
:100FFC00934246D0994A93425DD8122B2AD8122B91
:10100C0059D801A252F823F08F100008691000087B
:10101C007B100008BD100008C3100008C3100008A6
:10102C00C3100008C3100008C3100008C310000848
:10103C00C3100008C3100008C3100008C310000838
:10104C00C3100008C3100008C3100008711000087A
:10105C0085100008824A934213D02CE03B68DB6871
:10106C003B6229E03B68DB6804333B6224E03B686D
:10107C00DB6808333B621FE03B68DB680C333B6288
:10108C001AE03B689B68002B02D104233B6213E0FF
:10109C003B689B68012B05D108233B627B68FA698E
:1010AC001A6109E008233B627B68FA695A6103E024
:1010BC0000233B6200E000BFBB69FF2B01D87B68BB
:1010CC0001E07B6804337B61BB69FF2B02D87B6A30
:1010DC009B0002E07B6A083B9B003B617B691A68C2
:1010EC000F213B6901FA03F3DB431A40396A3B6970
:1010FC0001FA03F31A437B691A603B685B6803F0DF
:10110C008053002B00F09080564B9B69554A43F05E
:10111C0001039361534B9B6903F00103BB60BB68F4
:10112C00514A7B6A9B08023352F82330FB607B6A7E
:10113C0003F003039B000F2202FA03F3DB43FA686C
:10114C001340FB607B68494A93420DD07B68484A48
:10115C00934207D07B68474A934201D1022304E0B3
:10116C00032302E0012300E000237A6A02F0030269
:10117C0092009340FA681343FB603B497B6A9B08DF
:10118C000233FA6841F823203B685B6803F4803330
:10119C00002B06D0384B1A683749BB6913430B60D8
:1011AC0006E0354B1A68BB69DB43334913400B60CF
:1011BC003B685B6803F40033002B06D02E4B5A6857
:1011CC002D49BB6913434B6006E02B4B5A68BB6936
:1011DC00DB43294913404B603B685B6803F4801385
:1011EC00002B06D0244B9A682349BB6913438B60B0
:1011FC0006E0214B9A68BB69DB431F4913408B60A7
:10120C003B685B6803F40013002B06D01A4BDA68BA
:10121C001949BB691343CB6006E0174BDA68BB690D
:10122C00DB4315491340CB607B6A01337B623B681F
:10123C001A687B6A22FA03F3002B7FF4AFAE00BF6F
:10124C0000BF2C37BD4680BC704700BF0000321079
:10125C0000003110000022100000211000001210BC
:10126C000000111000100240000001400008014075
:10127C00000C0140001001400004014080B483B018
:10128C0000AF78600B467B8013467B707B78002B1D
:10129C0003D07A887B681A6103E07B881A047B6828
:1012AC001A6100BF0C37BD4680BC704780B586B054
:1012BC0000AF78607B68002B01D101236CE27B6866
:1012CC001B6803F00103002B00F08780924B5B68D6
:1012DC0003F00C03042B0CD08F4B5B6803F00C0356
:1012EC00082B12D18C4B5B6803F48033B3F5803F31
:1012FC000BD1894B1B6803F40033002B6CD07B683B
:10130C005B68002B68D1012346E27B685B68B3F510
:10131C00803F06D1804B1B687F4A43F480331360B7
:10132C002EE07B685B68002B0CD17B4B1B687A4AE8
:10133C0023F480331360784B1B68774A23F48023A3
:10134C0013601DE07B685B68B3F5A02F0CD1724B6A
:10135C001B68714A43F4802313606F4B1B686E4A01
:10136C0043F4803313600BE06B4B1B686A4A23F425
:10137C0080331360684B1B68674A23F48023136027
:10138C007B685B68002B13D0FFF7ECFC386108E03E
:10139C00FFF7E8FC02463B69D31A642B01D90323FF
:1013AC00FAE15D4B1B6803F40033002BF0D014E022
:1013BC00FFF7D8FC386108E0FFF7D4FC02463B6924
:1013CC00D31A642B01D90323E6E1534B1B6803F4B6
:1013DC000033002BF0D100E000BF7B681B6803F0EA
:1013EC000203002B63D04C4B5B6803F00C03002B07
:1013FC000BD0494B5B6803F00C03082B1CD1464BFC
:10140C005B6803F48033002B16D1434B1B6803F04D
:10141C000203002B05D07B681B69012B01D0012333
:10142C00BAE13D4B1B6823F0F8027B685B69DB007B
:10143C00394913430B603AE07B681B69002B20D0C1
:10144C00364B01221A60FFF78DFC386108E0FFF77C
:10145C0089FC02463B69D31A022B01D903239BE179
:10146C002D4B1B6803F00203002BF0D02A4B1B689A
:10147C0023F0F8027B685B69DB00274913430B60A0
:10148C0015E0264B00221A60FFF76CFC386108E06F
:10149C00FFF768FC02463B69D31A022B01D90323E0
:1014AC007AE11D4B1B6803F00203002BF0D17B6823
:1014BC001B6803F00803002B3AD07B689B69002B58
:1014CC0019D0174B01221A60FFF74CFC386108E069
:1014DC00FFF748FC02463B69D31A022B01D90323C0
:1014EC005AE10D4B5B6A03F00203002BF0D0012094
:1014FC0000F0A6FA1CE00A4B00221A60FFF732FC3F
:10150C0038610FE0FFF72EFC02463B69D31A022B21
:10151C0008D9032340E100BF001002400000424202
:10152C00800442429E4B5B6A03F00203002BE9D11C
:10153C007B681B6803F00403002B00F0A6800023DB
:10154C00FB75974BDB6903F08053002B0DD1944B4B
:10155C00DB69934A43F08053D361914BDB6903F011
:10156C008053BB60BB680123FB758E4B1B6803F477
:10157C008073002B18D18B4B1B688A4A43F4807301
:10158C001360FFF7EFFB386108E0FFF7EBFB024657
:10159C003B69D31A642B01D90323FDE0814B1B68F3
:1015AC0003F48073002BF0D07B68DB68012B06D131
:1015BC007B4B1B6A7A4A43F0010313622DE07B6874
:1015CC00DB68002B0CD1764B1B6A754A23F00103A8
:1015DC001362734B1B6A724A23F0040313621CE000
:1015EC007B68DB68052B0CD16D4B1B6A6C4A43F096
:1015FC00040313626A4B1B6A694A43F001031362CA
:10160C000BE0674B1B6A664A23F001031362644BC1
:10161C001B6A634A23F0040313627B68DB68002BAC
:10162C0015D0FFF79FFB38610AE0FFF79BFB0246E2
:10163C003B69D31A41F28832934201D90323ABE0C0
:10164C00574B1B6A03F00203002BEED014E0FFF79C
:10165C0089FB38610AE0FFF785FB02463B69D31A28
:10166C0041F28832934201D9032395E04C4B1B6A1B
:10167C0003F00203002BEED1FB7D012B05D1484B6F
:10168C00DB69474A23F08053D3617B68DB69002B0D
:10169C0000F08180424B5B6803F00C03082B61D097
:1016AC007B68DB69022B46D13F4B00221A60FFF7A7
:1016BC0059FB386108E0FFF755FB02463B69D31A2A
:1016CC00022B01D9032367E0354B1B6803F0007331
:1016DC00002BF0D17B681B6AB3F5803F08D1304BEF
:1016EC005B6823F400327B689B682D4913434B6085
:1016FC002B4B5B6823F474127B68196A7B685B6AFA
:10170C000B43274913434B60274B01221A60FFF709
:10171C0029FB386108E0FFF725FB02463B69D31A29
:10172C00022B01D9032337E01D4B1B6803F0007318
:10173C00002BF0D02FE01C4B00221A60FFF712FB9D
:10174C00386108E0FFF70EFB02463B69D31A022B07
:10175C0001D9032320E0124B1B6803F00073002B0C
:10176C00F0D118E07B68DB69012B01D1012313E078
:10177C000B4B5B68FB60FB6803F480327B681B6A75
:10178C009A4206D1FB6803F470127B685B6A9A423A
:10179C0001D0012300E0002318461837BD4680BD58
:1017AC0000100240007000406000424280B584B0DE
:1017BC0000AF786039607B68002B01D10123D0E049
:1017CC006A4B1B6803F007033A689A4210D9674BBF
:1017DC001B6823F0070265493B6813430B60634B9E
:1017EC001B6803F007033A689A4201D00123B8E062
:1017FC007B681B6803F00203002B20D07B681B68FE
:10180C0003F00403002B05D0594B5B68584A43F492
:10181C00E06353607B681B6803F00803002B05D062
:10182C00534B5B68524A43F460535360504B5B68B4
:10183C0023F0F0027B689B684D4913434B607B6837
:10184C001B6803F00103002B40D07B685B68012B05
:10185C0007D1474B1B6803F40033002B15D1012330
:10186C007FE07B685B68022B07D1414B1B6803F060
:10187C000073002B09D1012373E03D4B1B6803F06F
:10188C000203002B01D101236BE0394B5B6823F081
:10189C0003027B685B68364913434B60FFF762FABF
:1018AC00F8600AE0FFF75EFA0246FB68D31A41F2D1
:1018BC008832934201D9032353E02D4B5B6803F02C
:1018CC000C027B685B689B009A42EBD1274B1B6830
:1018DC0003F007033A689A4210D2244B1B6823F09A
:1018EC00070222493B6813430B60204B1B6803F033
:1018FC0007033A689A4201D0012332E07B681B68E7
:10190C0003F00403002B08D0194B5B6823F4E0624E
:10191C007B68DB68164913434B607B681B6803F0DC
:10192C000803002B09D0124B5B6823F460527B68D0
:10193C001B69DB000E4913434B6000F021F8024693
:10194C000B4B5B681B0903F00F030A49CB5C22FAB3
:10195C0003F3094A1360094B1B681846FFF7C0F9DB
:10196C00002318461037BD4680BD00BF0020024042
:10197C0000100240081B000800000020040000209A
:10198C0090B48AB000AF2A4B3C1D0FCB84E80F00FB
:10199C0040F201233B800023FB610023BB61002349
:1019AC007B6200237B6100233B62224B5B68FB6103
:1019BC00FB6903F00C03042B02D0082B03D02DE0A1
:1019CC001D4B3B622DE0FB699B0C03F00F0307F1F1
:1019DC002802134413F8243C7B61FB6903F4803325
:1019EC00002B13D0134B5B685B0C03F0010307F166
:1019FC002802134413F8283CBB617B690E4A02FB96
:101A0C0003F2BB69B2FBF3F37B6204E07B690B4A24
:101A1C0002FB03F37B627B6A3B6202E0064B3B6298
:101A2C0000BF3B6A18462837BD4690BC704700BFC4
:101A3C00F81A00080010024000127A0000093D005C
:101A4C0080B485B000AF78600A4B1B680A4AA2FBD1
:101A5C0003235B0A7A6802FB03F3FB6000BFFB689D
:101A6C005A1EFA60002BF9D100BF00BF1437BD46D7
:101A7C0080BC704700000020D34D621070B500266A
:101A8C000C4D0D4C641BA410A64209D100F022F899
:101A9C0000260A4D0A4C641BA410A64205D170BD49
:101AAC0055F8043B98470136EEE755F8043B984748
:101ABC000136F2E7181B0008181B0008181B000859
:101ACC001C1B000803460244934200D1704703F8E4
:101ADC00011BF9E7F8B500BFF8BC08BC9E4670477F
:0C1AEC00F8B500BFF8BC08BC9E4670476F
:101AF80002030405060708090A0B0C0D0E0F101047
:101B080000000000000000000102030406070809A5
:041B1800310100088F
:041B1C000D010008AF
:0C1B20000024F400100000000100000090
:0400000508000C756E
:00000001FF
